:1000000037510100970201009382C2FF17030100DC
:100010001303430013890200930903001305090029
:100020009305090013064000EF0040051384060005
:10003000138509009385090013064000EF000004B2
:100040009384060063D68400130AA0006F0080002A
:10005000130AB000970301009383C3FC23A043015C
:100060006F000000130600006358B0003306A600BE
:100070009385F5FF6FF05FFF678000009306000037
:100080009302000063D0C206939E22003303D50181
:10009000832303003383D501032E03002320510063
:1000A000232EC1FE232CD1FE232AA1FE2328B1FE3C
:1000B0001301C1FE1385030093050E00EFF09FFAB4
:1000C0008322C100B30656008322410103260101A9
:1000D0000325810083254100130141019382120011
:0800E0006FF05FFA6780000079
:020000021000EC
:1000000003000000050000000100000009000000DE
:1000100001000000060000000200000003000000D4
:00000001FF
