:10000000170401001304040497040100938484017D
:1000100017090100130909FFB7020100130E0000C0
:10002000130F80006358EE05930E000063D2EE03B9
:10003000939F2E00B30FF90103A50F0063565500DF
:10004000B302050013830E00938E1E006FF01FFE97
:10005000931F2E00B38FF40123A05F00B7020100AD
:10006000931F23003303F90123205300130E1E00B6
:080070006FF05FFB6F00000060
:020000021000EC
:10000000F9FFFFFF03000000F7FFFFFF08000000FB
:100010000F000000F0FFFFFF0000000003000000E1
:00000001FF
