:1000000037010200970201009382C2FF170301002B
:1000100013034300970701009387C7001389020069
:100020009309030013050900938509001306400096
:10003000EF0080006F0000009306000093020000B4
:1000400063D8C202939E22003303D50183230300A9
:100050003383D501032E03001388030093080E0099
:10006000330F1803B306DF00938212006FF05FFDB9
:0800700023A0D7006780000007
:020000021000EC
:1000000003000000050000000100000009000000DE
:1000100001000000060000000200000003000000D4
:00000001FF
