:10000000170102001301010017050100130585FF08
:10001000970501009385050013064000EF0040019D
:10002000970201009382020023A0A2006F0000004B
:10003000130181FE232A1100232881002326910029
:100040002324210123223101232041011304000034
:10005000930400001309050093890500130A0600A4
:1000600063D444030325090083A50900EF000004BD
:100070006354A40013040500938414001309490079
:10008000938949006FF0DFFD1305040083204101CF
:10009000032401018324C100032981008329410035
:1000A000032A010013018101678000003305B54078
:0C00B000635405003305A0406780000089
:020000021000EC
:1000000004000000FEFFFFFF0300000007000000E7
:100010000200000005000000FDFFFFFF00000000DF
:00000001FF
