:10000000930280009382F2FF17030100130383FF22
:10001000130E8000170F0100130FCFFF031F0F00F7
:1000200063C00202939E1200B38E6E00839E0E0088
:100030006354DF01138E02009382F2FF6FF05FFEC4
:1000400093020E00930F800063D0F203939E120080
:10005000B38E6E0083930E002390EE01138F030086
:10006000938212006FF05FFE170301001303A3FADF
:080070002320C3016F00000012
:020000021000EC
:10000000F9FF0200FFFF00000F00100014001E00A7
:020010000800E6
:00000001FF
